25001000000P        0025025001000000P        00063        0             0MABarnstable                                                  
25001010200P     4836000025001000000P        00063        0             0MABarnstable                                                  
25001010400P     3193000025001000000P        00063        0             0MABarnstable                                                  
25001010600P     3336000025001000000P        00063        0             0MABarnstable                                                  
25001010800P     5050000025001000000P        00063        0             0MABarnstable                                                  
25001010900P     5042000025001000000P        00063        0             0MABarnstable                                                  
25001011300P     3022000025001000000P        00063        0             0MABarnstable                                                  
25001011400P     3561000025001000000P        00063        0             0MABarnstable                                                  
25001011800P     6710000025001000000P        00063        0             0MABarnstable                                                  
25001012200P     5041000025001000000P        00063        0             0MABarnstable                                                  
25001013000P     3451000025001000000P        00063        0             0MABarnstable                                                  
25001014500P     5663000025001000000P        00063        0             0MABarnstable                                                  
25001014600P     4213000025001000000P        00063        0             0MABarnstable                                                  
25001014700P     3931000025001000000P        00063        0             0MABarnstable                                                  
25001014800P     3604000025001000000P        00063        0             0MABarnstable                                                  
25001014900P     4051000025001000000P        00063        0             0MABarnstable                                                  
25001010100      3431100025001010100      34311000     3431         25021MABarnstable                                                  
25001010200P     4836100025001010200      48361000     4836        105895MABarnstable                                                  
25001010300      5453100025001010300      54531000     5453         36235MABarnstable                                                  
25001000000P        0025025001010400P     31910000        0             0MABarnstable                                                  
25001010400P     3193099825001010400P     31910999     3187         15536MABarnstable                                                  
25001010900P     5042000125001010400P     31910001        4             3MABarnstable                                                  
25001010500      3150100025001010500      31501000     3150         21174MABarnstable                                                  
25001010600P     3336100025001010600      33361000     3336         14747MABarnstable                                                  
25001010700      3289100025001010700      32891000     3289         27266MABarnstable                                                  
25001010800P     5050100025001010800      50491000     5049         28406MABarnstable                                                  
25001010400P     3193000225001010900P     50450001        6            15MABarnstable                                                  
25001010800P     5050000025001010900P     50450000        1             2MABarnstable                                                  
25001010900P     5042099925001010900P     50450999     5038         31108MABarnstable                                                  
25001000000P        0025025001011000P     42670000        0             0MABarnstable                                                  
25001011000      4222100025001011000P     42670989     4222         21762MABarnstable                                                  
25001011600P     3243001425001011000P     42670011       45            24MABarnstable                                                  
25001011100      4500100025001011100      45001000     4500         19343MABarnstable                                                  
25001000000P        0025025001011200P     36190000        0             0MABarnstable                                                  
25001011200      3619100025001011200P     36191000     3619         13371MABarnstable                                                  
25001011300P     3022098925001011300      29881000     2988         13075MABarnstable                                                  
25001011300P     3022001125001011400P     35950009       34            42MABarnstable                                                  
25001011400P     3561100025001011400P     35950991     3561         15205MABarnstable                                                  
25001011500      3976100025001011500      39761000     3976         11160MABarnstable                                                  
25001011600P     3243098625001011600      31981000     3198          6410MABarnstable                                                  
25001011700      2216100025001011700      22161000     2216          7450MABarnstable                                                  
25001011800P     6710100025001011800      67101000     6710         22835MABarnstable                                                  
25001012000      9129100025001012000      91291000     9129         16248MABarnstable                                                  
25001012100      8968100025001012100      89681000     8968         23720MABarnstable                                                  
25001012200P     5041100025001012200      50411000     5041         47321MABarnstable                                                  
25001012300       585100025001012300       5851000      585         11479MABarnstable                                                  
25001012400      2867100025001012400      28671000     2867          2010MABarnstable                                                  
25001012500      3555100025001012500P     37260954     3555          5129MABarnstable                                                  
25001012700P     5344003225001012500P     37260046      171           857MABarnstable                                                  
25001012600      7746100025001012600      77461000     7746          6827MABarnstable                                                  
25001012700P     5344096825001012700      51731000     5173          9746MABarnstable                                                  
25001012800      3980100025001012800      39801000     3980          8049MABarnstable                                                  
25001012900      4155100025001012900      41551000     4155          6030MABarnstable                                                  
25001013000P     3451100025001013000      34511000     3451         15597MABarnstable                                                  
25001013100      6076100025001013100      60761000     6076         23021MABarnstable                                                  
25001013200P     5017100025001013200P     50210999     5017         19418MABarnstable                                                  
25001015000P     7192000125001013200P     50210001        4             9MABarnstable                                                  
25001013300P     3354098725001013300      33111000     3311         12610MABarnstable                                                  
25001013300P     3354001325001013400P     39430011       43           145MABarnstable                                                  
25001013400      3900100025001013400P     39430989     3900         21603MABarnstable                                                  
25001013500      6652100025001013500P     66580999     6652         23937MABarnstable                                                  
25001013600P     6203000125001013500P     66580001        6             2MABarnstable                                                  
25001015000P     7192000025001013500P     66580000        0            12MABarnstable                                                  
25001013600P     6203099925001013600P     62130997     6197         18059MABarnstable                                                  
25001014100P     1615001025001013600P     62130003       16            58MABarnstable                                                  
25001013700      4158100025001013700      41581000     4158         13983MABarnstable                                                  
25001013800      4658100025001013800      46581000     4658         12719MABarnstable                                                  
25001013900      4381100025001013900      43811000     4381         15827MABarnstable                                                  
25001014000      3936100025001014000      39361000     3936         19437MABarnstable                                                  
25001014100P     1615099025001014100P     15991000     1599         82811MABarnstable                                                  
25001015000P     7192000025001014100P     15990000        0           109MABarnstable                                                  
25001014300P     4738099825001014300      47291000     4729         16188MABarnstable                                                  
25001014300P     4738000225001014400P     64690001        9             7MABarnstable                                                  
25001014400      6460100025001014400P     64690999     6460         41018MABarnstable                                                  
25001014500P     5663100025001014500P     56641000     5663         17416MABarnstable                                                  
25001014600P     4213000025001014500P     56640000        1             0MABarnstable                                                  
25001014600P     4213100025001014600      42121000     4212         12410MABarnstable                                                  
25001014700P     3931100025001014700P     39340999     3931          5975MABarnstable                                                  
25001014800P     3604000125001014700P     39340001        3           249MABarnstable                                                  
25001014800P     3604099925001014800      36011000     3601          5207MABarnstable                                                  
25001014900P     4051100025001014900      40511000     4051         16119MABarnstable                                                  
25001013200P     5017000025001015000P     71890000        0             0MABarnstable                                                  
25001015000P     7192099925001015000P     71891000     7188         25045MABarnstable                                                  
25001015100P     4008000025001015000P     71890000        1             1MABarnstable                                                  
25001015100P     4008086925001015100      34811000     3481         16605MABarnstable                                                  
25001015100P     4008013125001015200P     22760231      526          3179MABarnstable                                                  
25001015200      1750100025001015200P     22760769     1750         12099MABarnstable                                                  
25003900100      3665100025003900100P     36651000     3665          1199MABerkshire                                                   
25003900600P     3765000025003900100P     36650000        0            48MABerkshire                                                   
25003900200P     4687099725003900200      46741000     4674          1351MABerkshire                                                   
25003900300      3019100025003900300      30191000     3019          2752MABerkshire                                                   
25003900400P     4980099725003900400P     49800997     4967         12667MABerkshire                                                   
25003900600P     3765000325003900400P     49800003       13            75MABerkshire                                                   
25003900500      3138100025003900500P     32850955     3138         28060MABerkshire                                                   
25003900600P     3765003925003900500P     32850045      147           102MABerkshire                                                   
25003900400P     4980000325003900600P     36180004       13            19MABerkshire                                                   
25003900600P     3765095825003900600P     36180996     3605          2140MABerkshire                                                   
25003900700      3270100025003900700      32701000     3270          7179MABerkshire                                                   
25003900800      5071100025003900800      50711000     5071         26161MABerkshire                                                   
25003900900      5416100025003900900      54161000     5416          4237MABerkshire                                                   
25003901000      5226100025003901000      52261000     5226         10388MABerkshire                                                   
25003901100P     3516099625003901100      35031000     3503          7894MABerkshire                                                   
25003900200P     4687000325003901200P       660197       13            48MABerkshire                                                   
25003901100P     3516000425003901200P       660197       13            11MABerkshire                                                   
25003901200        40100025003901200P       660606       40          1161MABerkshire                                                   
25003911100      2990100025003911100      29901000     2990         75217MABerkshire                                                   
25003912100      6892100025003912100      68921000     6892         56490MABerkshire                                                   
25003913100      5077100025003913100P     50771000     5077         54949MABerkshire                                                   
25003924100P     2276000025003913100P     50770000        0             1MABerkshire                                                   
25003914100      5985100025003914100      59851000     5985         68367MABerkshire                                                   
25003920100P     8424044325003920101      37311000     3731         35842MABerkshire                                                   
25003920100P     8424055725003920102      46931000     4693         85600MABerkshire                                                   
25003921100P      571096325003921100       5501000      550           582MABerkshire                                                   
25003921100P      571000025003921200P     38860000        0            22MABerkshire                                                   
25003921200      3886100025003921200P     38861000     3886          3974MABerkshire                                                   
25003921500P     3266000025003921200P     38860000        0           101MABerkshire                                                   
25003921300      5171100025003921300      51711000     5171         11892MABerkshire                                                   
25003921100P      571000025003921400P     17870000        0            10MABerkshire                                                   
25003921400      1787100025003921400P     17871000     1787         18107MABerkshire                                                   
25003921100P      571003725003921500P     32870006       21            26MABerkshire                                                   
25003921500P     3266100025003921500P     32870994     3266         18219MABerkshire                                                   
25003922100P     2904097525003922100      28301000     2830          1985MABerkshire                                                   
25003922100P     2904002525003922200P     38750019       74            60MABerkshire                                                   
25003922200      3801100025003922200P     38750981     3801         33229MABerkshire                                                   
25003922300      2104100025003922300      21041000     2104         24132MABerkshire                                                   
25003923100      3401100025003923100      34011000     3401         69767MABerkshire                                                   
25003924100P     2276100025003924100      22761000     2276         59411MABerkshire                                                   
25003925100      7527100025003925100      75271000     7527        117027MABerkshire                                                   
25003926100      3335100025003926100      33351000     3335        124699MABerkshire                                                   
25003931100P     4763035425003931100      16861000     1686         33042MABerkshire                                                   
25003931100P     4763029025003931300      13811000     1381        155983MABerkshire                                                   
25003931100P     4763035625003931400      16961000     1696        157789MABerkshire                                                   
25003932100P     5536041525003932200      22991000     2299        217619MABerkshire                                                   
25003932100P     5536033825003932300      18721000     1872         53964MABerkshire                                                   
25003933100P     3602035625003933200      12841000     1284        117075MABerkshire                                                   
25003933100P     3602041525003933300      14941000     1494        122245MABerkshire                                                   
25003932100P     5536024725003933400P     21890624     1365         92822MABerkshire                                                   
25003933100P     3602022925003933400P     21890376      824        135505MABerkshire                                                   
25003934100P     3290043025003934200      14161000     1416         47857MABerkshire                                                   
25003934100P     3290057025003934300      18741000     1874        136284MABerkshire                                                   
25003935100      2572100025003935100      25721000     2572        176716MABerkshire                                                   
25005000000P        0033325005000000         01000        0             0MABristol                                                     
25005600100      8569100025005600100      85691000     8569         18883MABristol                                                     
25005600201      8990100025005600201      89901000     8990         35313MABristol                                                     
25005600202      4740100025005600202      47401000     4740         19459MABristol                                                     
25005610100      5000100025005610100      50001000     5000          3843MABristol                                                     
25005610200P    17414069225005610201     120511000    12051         24264MABristol                                                     
25005610200P    17414030825005610202      53631000     5363         24891MABristol                                                     
25005611100      9182100025005611100P     91900999     9182         40627MABristol                                                     
25005611200P     8854000125005611100P     91900001        8            33MABristol                                                     
25005611200P     8854099925005611200      88461000     8846         33687MABristol                                                     
25005612100      3854100025005612100      38541000     3854         19446MABristol                                                     
25005612200P     7885100025005612200P     78851000     7885         33644MABristol                                                     
25005614100P    13043000025005612200P     78850000        0             1MABristol                                                     
25005613100      6414100025005613100P     67220954     6414         20489MABristol                                                     
25005613200       308100025005613100P     67220046      308          4975MABristol                                                     
25005613300P     9033077925005613300      70381000     7038         21869MABristol                                                     
25005613300P     9033022125005613400P     37560531     1995         12981MABristol                                                     
25005613400        35100025005613400P     37560009       35           659MABristol                                                     
25005613900P     9499018225005613400P     37560460     1726          1862MABristol                                                     
25005613500P      211100025005613600P     36840057      211           625MABristol                                                     
25005613600      3398100025005613600P     36840922     3398          1134MABristol                                                     
25005613800P     5102001525005613600P     36840020       75           139MABristol                                                     
25005613700      4293100025005613700      42931000     4293          3357MABristol                                                     
25005613500P      211000025005613800P     50270000        0             0MABristol                                                     
25005613800P     5102098525005613800P     50271000     5027          1677MABristol                                                     
25005613900P     9499081825005613900P     78720987     7773          8993MABristol                                                     
25005614000P     4632002125005613900P     78720013       99            64MABristol                                                     
25005614000P     4632097925005614000      45331000     4533          1940MABristol                                                     
25005614100P    13043048525005614101P     63201000     6320         10837MABristol                                                     
25005616100P     5757000025005614101P     63200000        0             7MABristol                                                     
25005612200P     7885000025005614102P     67310000        0             0MABristol                                                     
25005614100P    13043051525005614102P     67310997     6714         29035MABristol                                                     
25005616100P     5757000325005614102P     67310003       17            65MABristol                                                     
25005615100      6175100025005615100      61751000     6175         57975MABristol                                                     
25005614100P    13043000125005616100P     57490002        9            75MABristol                                                     
25005616100P     5757099725005616100P     57490998     5740         42759MABristol                                                     
25005617100P     8472052725005617101      44651000     4465         59570MABristol                                                     
25005617100P     8472047325005617102      40071000     4007         35247MABristol                                                     
25005630100P    10349069825005630100P     72300999     7226          3140MABristol                                                     
25005630200P    16798000025005630100P     72300001        4             0MABristol                                                     
25005630100P    10349003625005630200P     75280050      376           249MABristol                                                     
25005630200P    16798042625005630200P     75280950     7152         15211MABristol                                                     
25005630100P    10349026525005630300P     73180375     2747          1874MABristol                                                     
25005630200P    16798027225005630300P     73180625     4571         18246MABristol                                                     
25005630200P    16798030225005630400      50671000     5067          9564MABristol                                                     
25005631100      7817100025005631100      78171000     7817          8651MABristol                                                     
25005631200      6168100025005631200      61681000     6168         17482MABristol                                                     
25005630200P    16798000025005631300P     48460001        4             0MABristol                                                     
25005631300      4842100025005631300P     48460999     4842          8842MABristol                                                     
25005631400      2703100025005631400      27031000     2703           792MABristol                                                     
25005631500      2843100025005631500      28431000     2843          2307MABristol                                                     
25005631600      4203100025005631600      42031000     4203          1583MABristol                                                     
25005631700      6261100025005631700      62611000     6261         19086MABristol                                                     
25005631800      7227100025005631800      72271000     7227         12512MABristol                                                     
25005632100      6242100025005632100      62421000     6242         23132MABristol                                                     
25005632200      7183100025005632200      71831000     7183         24305MABristol                                                     
25005633100      4931100025005633100      49311000     4931         54480MABristol                                                     
25005633200      5241100025005633200      52411000     5241         65946MABristol                                                     
25005640100P     5103100025005640100P     51780986     5103          3164MABristol                                                     
25005640200P     6244001225005640100P     51780014       75           173MABristol                                                     
25005646100P    14183000025005640100P     51780000        0             1MABristol                                                     
25005640200P     6244098825005640200      61691000     6169          1493MABristol                                                     
25005640300      3676100025005640300      36761000     3676          1312MABristol                                                     
25005640400      2756100025005640400      27561000     2756           888MABristol                                                     
25005640500      5238100025005640500      52381000     5238          1375MABristol                                                     
25005640600      4721100025005640600      47211000     4721           717MABristol                                                     
25005640700P     2988094825005640700      28331000     2833           968MABristol                                                     
25005640700P     2988005225005640800P     35530044      155           119MABristol                                                     
25005640800      3398100025005640800P     35530956     3398          2933MABristol                                                     
25005641500P     2656000025005640800P     35530000        0             2MABristol                                                     
25005640900P     6708099725005640900      66881000     6688           847MABristol                                                     
25005641000      2574100025005641000      25741000     2574           625MABristol                                                     
25005640900P     6708000325005641100P      4510044       20             1MABristol                                                     
25005641100       431100025005641100P      4510956      431           319MABristol                                                     
25005641200      2990100025005641200      29901000     2990           999MABristol                                                     
25005641300      5999100025005641300      59991000     5999           887MABristol                                                     
25005641400      2817100025005641400      28171000     2817           571MABristol                                                     
25005641500P     2656096425005641500      25611000     2561           382MABristol                                                     
25005641500P     2656003625005641600P     23900040       95            39MABristol                                                     
25005641600      2295100025005641600P     23900960     2295           981MABristol                                                     
25005641700P     5523099725005641700P     55080999     5504          2542MABristol                                                     
25005642500P     4394000125005641700P     55080001        4           515MABristol                                                     
25005641800P     2121096525005641800      20471000     2047           513MABristol                                                     
25005641800P     2121003525005641900P     24360030       74            13MABristol                                                     
25005641900      2362100025005641900P     24360970     2362           324MABristol                                                     
25005642000      3551100025005642000      35511000     3551          1151MABristol                                                     
25005642100      4261100025005642100      42611000     4261          2543MABristol                                                     
25005642200P     3981099625005642200      39661000     3966          1406MABristol                                                     
25005642200P     3981000425005642300P     23850006       15             6MABristol                                                     
25005642300P     2394099025005642300P     23850994     2370          1040MABristol                                                     
25005642400      2757100025005642400P     28800957     2757           869MABristol                                                     
25005642500P     4394002825005642400P     28800043      123           246MABristol                                                     
25005641700P     5523000325005642500P     43100004       19            21MABristol                                                     
25005642300P     2394001025005642500P     43100006       24            11MABristol                                                     
25005642500P     4394097125005642500P     43100990     4267         50350MABristol                                                     
25005644100P    10779055525005644101      59831000     5983          4479MABristol                                                     
25005644100P    10779044525005644102      47961000     4796          6180MABristol                                                     
25005644200P     7463099925005644200      74551000     7455         10342MABristol                                                     
25005645100P    15893032825005645101      52091000     5209          5900MABristol                                                     
25005644200P     7463000125005645102P     49910002        8             5MABristol                                                     
25005645100P    15893031425005645102P     49910998     4983         29302MABristol                                                     
25005645100P    15893035925005645103      57011000     5701         24528MABristol                                                     
25005646100P    14183048825005646101      69161000     6916         32029MABristol                                                     
25005640100P     5103000025005646102P     72670000        0             0MABristol                                                     
25005646100P    14183051225005646102P     72671000     7267         97598MABristol                                                     
25005650101P     5459097925005650101P     53670996     5346          4802MABristol                                                     
25005650201P     2898000725005650101P     53670004       21            16MABristol                                                     
25005650102      4782100025005650102      47821000     4782          5216MABristol                                                     
25005650101P     5459002125005650201P     28950039      113           199MABristol                                                     
25005650201P     2898096025005650201P     28950961     2782         15933MABristol                                                     
25005650202      2135100025005650202P     21351000     2135          1783MABristol                                                     
25005650800P     3555000025005650202P     21350000        0            48MABristol                                                     
25005650201P     2898003325005650300P     32040030       95            45MABristol                                                     
25005650300P     3109100025005650300P     32040970     3109           995MABristol                                                     
25005650400      3704100025005650400      37041000     3704           721MABristol                                                     
25005650500      3151100025005650500      31511000     3151           589MABristol                                                     
25005650600      2464100025005650600      24641000     2464           426MABristol                                                     
25005650700      2340100025005650700      23401000     2340           366MABristol                                                     
25005650800P     3555099325005650800      35291000     3529           615MABristol                                                     
25005650800P     3555000725005650900P     29730009       26            65MABristol                                                     
25005650900      2947100025005650900P     29730991     2947           888MABristol                                                     
25005651001      2703100025005651001      27031000     2703          3415MABristol                                                     
25005651002      3867100025005651002      38671000     3867          2432MABristol                                                     
25005651100      3990100025005651100      39901000     3990           694MABristol                                                     
25005651200      1604100025005651200      16041000     1604           828MABristol                                                     
25005651300P     2308100025005651300P     23081000     2308           762MABristol                                                     
25005651800P     1842000025005651300P     23080000        0            41MABristol                                                     
25005651400      3241100025005651400      32411000     3241           430MABristol                                                     
25005651500      3071100025005651500      30711000     3071           833MABristol                                                     
25005651600      4137100025005651600      41371000     4137           691MABristol                                                     
25005651700      2204100025005651700      22041000     2204           407MABristol                                                     
25005651300P     2308000025005651800P     18320000        0           112MABristol                                                     
25005651800P     1842099525005651800P     18321000     1832           733MABristol                                                     
25005651900P     1892000025005651800P     18320000        0             1MABristol                                                     
25005651800P     1842000525005651900P     18810005       10             3MABristol                                                     
25005651900P     1892098925005651900P     18810995     1871           983MABristol                                                     
25005652000      2842100025005652000      28421000     2842           445MABristol                                                     
25005652100      2859100025005652100      28591000     2859           586MABristol                                                     
25005652200      3023100025005652200      30231000     3023           979MABristol                                                     
25005652300      2746100025005652300      27461000     2746           946MABristol                                                     
25005652400      2673100025005652400      26731000     2673           739MABristol                                                     
25005652500      2482100025005652500P     24821000     2482           253MABristol                                                     
25005652700P     3616000025005652500P     24820000        0             0MABristol                                                     
25005651900P     1892001125005652600P     27400008       21            10MABristol                                                     
25005652600      2719100025005652600P     27400992     2719           569MABristol                                                     
25005652700P     3616000025005652600P     27400000        0             0MABristol                                                     
25005652700P     3616100025005652700      36161000     3616           737MABristol                                                     
25005652800      3405100025005652800      34051000     3405          1781MABristol                                                     
25005653100P    10623056925005653101      60451000     6045         20198MABristol                                                     
25005653100P    10623043125005653102      45781000     4578         45191MABristol                                                     
25005653200P    11618069925005653201P     81300999     8125         17074MABristol                                                     
25005653300P     8425000125005653201P     81300001        5             1MABristol                                                     
25005653200P    11618030125005653202      34931000     3493         15126MABristol                                                     
25005000000P        0033325005653301P     51650000        0             0MABristol                                                     
25005653300P     8425061325005653301P     51651000     5165          8794MABristol                                                     
25005000000P        0033325005653302P     32550000        0             0MABristol                                                     
25005653300P     8425038625005653302P     32551000     3255         53085MABristol                                                     
25005654100      6512100025005654100P     66140985     6512         42995MABristol                                                     
25005654200P     3643002625005654100P     66140015       96           101MABristol                                                     
25005655200P     4608000125005654100P     66140001        6             2MABristol                                                     
25005650300P     3109000025005654200P     35470000        0             0MABristol                                                     
25005654200P     3643097425005654200P     35471000     3547          4695MABristol                                                     
25005655100      3807100025005655100P     38090999     3807         17214MABristol                                                     
25005655400P     4210000025005655100P     38090001        2             1MABristol                                                     
25005655200P     4608099925005655200      46021000     4602          2409MABristol                                                     
25005655300P     3540099825005655300      35331000     3533          3292MABristol                                                     
25005655300P     3540000225005655400P     42150002        7            13MABristol                                                     
25005655400P     4210100025005655400P     42150998     4208          9179MABristol                                                     
25007000000P        0025025007200100P     37550000        0             0MADukes                                                       
25007200100      3755100025007200100P     37551000     3755         16989MADukes                                                       
25007000000P        0025025007200200P     37130000        0             0MADukes                                                       
25007200200      3713100025007200200P     37131000     3713         19076MADukes                                                       
25007000000P        0025025007200300P     37790000        0             0MADukes                                                       
25007200300      3779100025007200300P     37791000     3779         69909MADukes                                                       
25007000000P        0025025007200400P     37400000        0             0MADukes                                                       
25007200400      3740100025007200400P     37401000     3740        162812MADukes                                                       
25009000000         0100025009000000         01000        0             0MAEssex                                                       
25009201100P     3632100025009201100      36321000     3632          3223MAEssex                                                       
25009202100P     8248100025009202100      82481000     8248          4365MAEssex                                                       
25009202200      6163100025009202200P     61641000     6163          3531MAEssex                                                       
25009203100P     7037000025009202200P     61640000        1             2MAEssex                                                       
25009203100P     7037100025009203100P     70510998     7036          3805MAEssex                                                       
25009204100P     9167000225009203100P     70510002       15             9MAEssex                                                       
25009203200P     4676100025009203200P     46761000     4676          3547MAEssex                                                       
25009204100P     9167000025009203200P     46760000        0             0MAEssex                                                       
25009203300      8650100025009203300      86501000     8650          4369MAEssex                                                       
25009203100P     7037000025009204101P     51940000        0             7MAEssex                                                       
25009203200P     4676000025009204101P     51940000        0             2MAEssex                                                       
25009204100P     9167056725009204101P     51941000     5194          1257MAEssex                                                       
25009202100P     8248000025009204102P     39580000        0             1MAEssex                                                       
25009203100P     7037000025009204102P     39580000        0             4MAEssex                                                       
25009204100P     9167043225009204102P     39581000     3958          2617MAEssex                                                       
25009204200      4847100025009204200      48471000     4847           964MAEssex                                                       
25009204300      3871100025009204300      38711000     3871           586MAEssex                                                       
25009204400P     3523100025009204400      35231000     3523          1688MAEssex                                                       
25009204500      3007100025009204500      30071000     3007          1069MAEssex                                                       
25009204600P     5248100025009204600P     52491000     5248          3052MAEssex                                                       
25009210800P     4092000025009204600P     52490000        1             3MAEssex                                                       
25009217200P     8033000025009204600P     52490000        0             0MAEssex                                                       
25009204701P     4996099725009204701      49791000     4979          7279MAEssex                                                       
25009204701P     4996000325009204702P     57790003       17            14MAEssex                                                       
25009204702      5762100025009204702P     57790997     5762          2447MAEssex                                                       
25009205100      5378100025009205100      53781000     5378          1859MAEssex                                                       
25009205200      5202100025009205200      52021000     5202          1230MAEssex                                                       
25009205300      4333100025009205300P     43490996     4333          2315MAEssex                                                       
25009205400P     4368000425009205300P     43490004       16            10MAEssex                                                       
25009205400P     4368099625009205400      43521000     4352          8349MAEssex                                                       
25009205500      4826100025009205500      48261000     4826          1478MAEssex                                                       
25009205600      3997100025009205600P     39971000     3997          1340MAEssex                                                       
25009208300P     6988000025009205600P     39970000        0             1MAEssex                                                       
25009205700P     4652098625009205700P     45861000     4586          1351MAEssex                                                       
25009208102P     3337000025009205700P     45860000        0             0MAEssex                                                       
25009205700P     4652001425009205800P     29170023       66            21MAEssex                                                       
25009205800      2826100025009205800P     29170969     2826           751MAEssex                                                       
25009206000P     3208000825009205800P     29170009       25            38MAEssex                                                       
25009205900      4089100025009205900      40891000     4089           611MAEssex                                                       
25009206000P     3208099225009206000      31831000     3183           294MAEssex                                                       
25009206100      3818100025009206100      38181000     3818           316MAEssex                                                       
25009206200      5272100025009206200      52721000     5272           486MAEssex                                                       
25009206300      3655100025009206300      36551000     3655           600MAEssex                                                       
25009206400      5229100025009206400      52291000     5229           840MAEssex                                                       
25009206500      3415100025009206500      34151000     3415           427MAEssex                                                       
25009206600      4455100025009206600      44551000     4455           653MAEssex                                                       
25009206700      4289100025009206700      42891000     4289           560MAEssex                                                       
25009206800      3882100025009206800      38821000     3882           480MAEssex                                                       
25009201100P     3632000025009206900P     39970000        0             1MAEssex                                                       
25009206900      3997100025009206900P     39971000     3997           490MAEssex                                                       
25009207000      2136100025009207000      21361000     2136           719MAEssex                                                       
25009207100P     3336099525009207100      33201000     3320           366MAEssex                                                       
25009207100P     3336000525009207200P     27030006       16             1MAEssex                                                       
25009207200      2687100025009207200P     27030994     2687          2426MAEssex                                                       
25009208101P     5324099225009208101      52801000     5280          2189MAEssex                                                       
25009205700P     4652000025009208102P     33370000        0             0MAEssex                                                       
25009208102P     3337100025009208102P     33371000     3337          5080MAEssex                                                       
25009208101P     5324000825009208200P     55040008       44            22MAEssex                                                       
25009208200      5460100025009208200P     55040992     5460          3055MAEssex                                                       
25009208300P     6988100025009208300      69881000     6988          6927MAEssex                                                       
25009208400      4969100025009208400      49691000     4969         11181MAEssex                                                       
25009209100      6212100025009209100      62121000     6212         11368MAEssex                                                       
25009209200      5330100025009209200      53301000     5330         14908MAEssex                                                       
25009210100      7223100025009210100      72231000     7223          6626MAEssex                                                       
25009210200      5726100025009210200      57261000     5726          6612MAEssex                                                       
25009210300      6004100025009210300      60041000     6004         11522MAEssex                                                       
25009210400      6577100025009210400      65771000     6577          6823MAEssex                                                       
25009210500      6358100025009210500      63581000     6358          4584MAEssex                                                       
25009210600      4034100025009210600      40341000     4034          2987MAEssex                                                       
25009210700      4059100025009210700      40591000     4059           868MAEssex                                                       
25009204600P     5248000025009210800P     40910000        0            10MAEssex                                                       
25009210800P     4092100025009210800P     40911000     4091           908MAEssex                                                       
25009210900      4057100025009210900      40571000     4057          1526MAEssex                                                       
25009211100      3748100025009211100      37481000     3748          3870MAEssex                                                       
25009211200      6461100025009211200      64611000     6461          3879MAEssex                                                       
25009211300      6832100025009211300      68321000     6832          8388MAEssex                                                       
25009211400      7812100025009211400P     81710956     7812         16647MAEssex                                                       
25009211500       359100025009211400P     81710044      359          1611MAEssex                                                       
25009212100      7744100025009212100      77441000     7744         36177MAEssex                                                       
25009213100P     7933099825009213100      79211000     7921         62090MAEssex                                                       
25009214100P     6141100025009214100      61411000     6141         32994MAEssex                                                       
25009214100P     6141000025009215100P     83150000        0             0MAEssex                                                       
25009215100P     8315100025009215100P     83151000     8315         37804MAEssex                                                       
25009223100P     4086000025009215100P     83150000        0             1MAEssex                                                       
25009216100      4440100025009216100      44401000     4440         19991MAEssex                                                       
25009217100P     7321100025009217100P     73360998     7321         11451MAEssex                                                       
25009217300P     4788000325009217100P     73360002       15            17MAEssex                                                       
25009217200P     8033055025009217201      44171000     4417          2736MAEssex                                                       
25009217200P     8033045025009217202      36161000     3616          1682MAEssex                                                       
25009217100P     7321000025009217300P     47730000        0           106MAEssex                                                       
25009217300P     4788099725009217300P     47731000     4773          2351MAEssex                                                       
25009217400      5245100025009217400      52451000     5245          1070MAEssex                                                       
25009204400P     3523000025009217500P     65260000        0             0MAEssex                                                       
25009217500      6526100025009217500P     65261000     6526          2549MAEssex                                                       
25009204400P     3523000025009217600P     79490000        0          3663MAEssex                                                       
25009217600P     7949100025009217600P     79491000     7949         17368MAEssex                                                       
25009217600P     7949000025009218100P     52280000        0             0MAEssex                                                       
25009218100      5228100025009218100P     52281000     5228         24062MAEssex                                                       
25009220100P     7767100025009220100      77671000     7767         18306MAEssex                                                       
25009220100P     7767000025009221100P     43170000        0            32MAEssex                                                       
25009221100P     4584094225009221100P     43171000     4317         14301MAEssex                                                       
25009221800P     2448000025009221100P     43170000        0             0MAEssex                                                       
25009221200P     1661090725009221300P     47100320     1506          3929MAEssex                                                       
25009221300P     3576089625009221300P     47100680     3204          5248MAEssex                                                       
25009221200P     1661009325009221400P     35270044      155            79MAEssex                                                       
25009221300P     3576010425009221400P     35270105      372           140MAEssex                                                       
25009221400      3000100025009221400P     35270851     3000           932MAEssex                                                       
25009221500      3242100025009221500      32421000     3242           799MAEssex                                                       
25009221100P     4584005825009221600P     27570097      267           219MAEssex                                                       
25009221600      1828100025009221600P     27570663     1828           547MAEssex                                                       
25009221800P     2448027025009221600P     27570240      662           229MAEssex                                                       
25009221700      2965100025009221700P     29790995     2965           857MAEssex                                                       
25009221800P     2448000625009221700P     29790005       14             9MAEssex                                                       
25009221800P     2448072425009221800      17721000     1772          1507MAEssex                                                       
25009221900      6969100025009221900      69691000     6969         38416MAEssex                                                       
25009222100      3267100025009222100      32671000     3267         36674MAEssex                                                       
25009223100P     4086100025009223100      40861000     4086         45716MAEssex                                                       
25009223200      3685100025009223200      36851000     3685          3725MAEssex                                                       
25009215100P     8315000025009223300P     52160000        0             0MAEssex                                                       
25009223300      5216100025009223300P     52161000     5216         34950MAEssex                                                       
25009250100P     1818100025009250100      18181000     1818           847MAEssex                                                       
25009250200      5425100025009250200      54251000     5425          1441MAEssex                                                       
25009250300      1900100025009250300      19001000     1900           509MAEssex                                                       
25009250400P     3403100025009250400      34031000     3403           341MAEssex                                                       
25009250500      3514100025009250500      35141000     3514           318MAEssex                                                       
25009250600      5098100025009250600P     51090998     5098           669MAEssex                                                       
25009252501P     3538000325009250600P     51090002       11             2MAEssex                                                       
25009250700      4477100025009250700P     47320946     4477           529MAEssex                                                       
25009250800P     6701003825009250700P     47320054      255           128MAEssex                                                       
25009250800P     6701096225009250800P     64560998     6445          2059MAEssex                                                       
25009252501P     3538000325009250800P     64560001        9             3MAEssex                                                       
25009252601P     6169000025009250800P     64560000        2             3MAEssex                                                       
25009250900      2052100025009250900      20521000     2052           163MAEssex                                                       
25009251000      1635100025009251000      16351000     1635           333MAEssex                                                       
25009251100P     3007099225009251100      29821000     2982           345MAEssex                                                       
25009251100P     3007000825009251200P     13320019       25             1MAEssex                                                       
25009251200      1307100025009251200P     13320981     1307           209MAEssex                                                       
25009250100P     1818000025009251300P     35900000        0             1MAEssex                                                       
25009251300      3590100025009251300P     35901000     3590           571MAEssex                                                       
25009251400      4906100025009251400      49061000     4906           801MAEssex                                                       
25009251500      5770100025009251500      57701000     5770          1564MAEssex                                                       
25009251600      5965100025009251600P     59651000     5965          1394MAEssex                                                       
25009253100P     5513000025009251600P     59650000        0            29MAEssex                                                       
25009251700      4413100025009251700      44131000     4413          2611MAEssex                                                       
25009251800P     7037100025009251800P     70410999     7035          3149MAEssex                                                       
25009254100P     5563000125009251800P     70410001        4             8MAEssex                                                       
25009254402P     6576000025009251800P     70410000        2             1MAEssex                                                       
25009252101      3388100025009252101P     33980997     3388          1854MAEssex                                                       
25009252102P     3652000325009252101P     33980003       10            40MAEssex                                                       
25009252102P     3652099725009252102P     36470999     3642         10199MAEssex                                                       
25009270297         5100025009252102P     36470001        5            78MAEssex                                                       
25009252200P     6148049725009252201      30541000     3054          4238MAEssex                                                       
25009252200P     6148050325009252202P     31040997     3094          6859MAEssex                                                       
25009270298        10100025009252202P     31040003       10            43MAEssex                                                       
25009252300      5923100025009252300      59231000     5923          4930MAEssex                                                       
25009250400P     3403000025009252400P     40040000        0             0MAEssex                                                       
25009252400      4004100025009252400P     40041000     4004           907MAEssex                                                       
25009250800P     6701000025009252501P     35130000        1             0MAEssex                                                       
25009252501P     3538099325009252501P     35131000     3512          1344MAEssex                                                       
25009252501P     3538000225009252502P     46660001        6             1MAEssex                                                       
25009252502      4660100025009252502P     46660999     4660          5172MAEssex                                                       
25009252601P     6169100025009252601      61671000     6167          5100MAEssex                                                       
25009252602P     6313056525009252602      35671000     3567         13345MAEssex                                                       
25009252602P     6313043525009252603      27461000     2746          3909MAEssex                                                       
25009253100P     5513100025009253100      55131000     5513          2721MAEssex                                                       
25009253201      2930100025009253201      29301000     2930          6225MAEssex                                                       
25009253202      6666100025009253202      66661000     6666          4066MAEssex                                                       
25009253203      3610100025009253203      36101000     3610         14172MAEssex                                                       
25009253204P     8483049025009253204      41591000     4159         23899MAEssex                                                       
25009253204P     8483051025009253205      43241000     4324         17945MAEssex                                                       
25009254100P     5563099725009254100      55461000     5546          6833MAEssex                                                       
25009254100P     5563000225009254200P     41660003       13             1MAEssex                                                       
25009254200P     4159099925009254200P     41660997     4153          3099MAEssex                                                       
25009254200P     4159000125009254301P     39110002        6            10MAEssex                                                       
25009254301      3905100025009254301P     39110998     3905         11935MAEssex                                                       
25009254302      4400100025009254302      44001000     4400         17489MAEssex                                                       
25009254401P     6648042325009254401      28151000     2815          6486MAEssex                                                       
25009251800P     7037000025009254402P     65760000        2             3MAEssex                                                       
25009254402P     6576100025009254402P     65761000     6574         27934MAEssex                                                       
25009254401P     6648057725009254403      38331000     3833          6513MAEssex                                                       
25009260100      4007100025009260100      40071000     4007           908MAEssex                                                       
25009260200      3444100025009260200      34441000     3444           761MAEssex                                                       
25009260300P     8012060025009260301      48111000     4811          5844MAEssex                                                       
25009260300P     8012040025009260302      32011000     3201         20218MAEssex                                                       
25009260400P     9343040825009260401      38121000     3812         10267MAEssex                                                       
25009260400P     9343059225009260402      55311000     5531         16783MAEssex                                                       
25009260500      3755100025009260500      37551000     3755          2925MAEssex                                                       
25009260600      2933100025009260600      29331000     2933          1799MAEssex                                                       
25009260700      4438100025009260700      44381000     4438          2446MAEssex                                                       
25009260800      4768100025009260800P     48060992     4768           932MAEssex                                                       
25009260900P     4853000825009260800P     48060008       38            21MAEssex                                                       
25009260900P     4853099225009260900      48151000     4815          2982MAEssex                                                       
25009261000      4142100025009261000      41421000     4142          1491MAEssex                                                       
25009261100P     9274048625009261101      45061000     4506          9315MAEssex                                                       
25009261100P     9274051425009261102      47681000     4768          9626MAEssex                                                       
25009262100P     6139100025009262100      61381000     6138         22091MAEssex                                                       
25009263100P     4147100025009263100P     41491000     4147         34893MAEssex                                                       
25009268100P     2408000125009263100P     41490000        2            72MAEssex                                                       
25009268200P     6027000025009263100P     41490000        0            44MAEssex                                                       
25009264100      6038100025009264100      60381000     6038         23161MAEssex                                                       
25009213100P     7933000225009265101P     35410003       12           172MAEssex                                                       
25009265100P     7365047925009265101P     35410997     3529         16932MAEssex                                                       
25009265100P     7365052125009265102      38361000     3836         16402MAEssex                                                       
25009262100P     6139000025009266100P     39200000        1             1MAEssex                                                       
25009266100      3919100025009266100P     39201000     3919         14313MAEssex                                                       
25009266200      5492100025009266200      54921000     5492          6760MAEssex                                                       
25009266300      3706100025009266300      37061000     3706          4728MAEssex                                                       
25009266400      3332100025009266400      33321000     3332          6322MAEssex                                                       
25009267100P     7827040825009267101      31931000     3193         11964MAEssex                                                       
25009267100P     7827059225009267102      46341000     4634         28010MAEssex                                                       
25009263100P     4147000025009268100P     24060000        0             0MAEssex                                                       
25009268100P     2408099925009268100P     24061000     2406          6412MAEssex                                                       
25009268200P     6027100025009268200      60271000     6027          9681MAEssex                                                       
25009268300      4147100025009268300      41471000     4147          2492MAEssex                                                       
25009268400      4609100025009268400      46091000     4609          3128MAEssex                                                       
25009269100      6717100025009269100      67171000     6717         62797MAEssex                                                       
25009270100      5500100025009270100      55001000     5500         48482MAEssex                                                       
25011040100      4752100025011040100P     47560999     4752        412833MAFranklin                                                    
25011040200P     4294000125011040100P     47560001        4           269MAFranklin                                                    
25011040200P     4294099925011040200P     42901000     4290        143314MAFranklin                                                    
25011040300P     2951000025011040200P     42900000        0           135MAFranklin                                                    
25011040300P     2951100025011040300      29511000     2951         89129MAFranklin                                                    
25011040400      3203100025011040400      32031000     3203        215320MAFranklin                                                    
25011040500P     7518100025011040500      75181000     7518         91589MAFranklin                                                    
25011040600      4402100025011040600      44021000     4402        244586MAFranklin                                                    
25011040700P     8489049425011040701P     41931000     4193          5258MAFranklin                                                    
25011041100P     3611000025011040701P     41930000        0             0MAFranklin                                                    
25011040700P     8489050625011040702      42961000     4296         73478MAFranklin                                                    
25011040800      5350100025011040800      53501000     5350         89517MAFranklin                                                    
25011040900      4750100025011040900      47501000     4750         83636MAFranklin                                                    
25011041000      3358100025011041000      33581000     3358         28330MAFranklin                                                    
25011040700P     8489000025011041100P     36110000        0            11MAFranklin                                                    
25011041100P     3611100025011041100P     36111000     3611         18854MAFranklin                                                    
25011041200      3352100025011041200      33521000     3352          2196MAFranklin                                                    
25011041300      5030100025011041300      50301000     5030          2392MAFranklin                                                    
25011041400      2817100025011041400      28171000     2817          4491MAFranklin                                                    
25011041500      7658100025011041500      76581000     7658        312906MAFranklin                                                    
25013800100      7758100025013800100      77581000     7758          4254MAHampden                                                     
25013800201P     6317100025013800201      63171000     6317          3173MAHampden                                                     
25013800202      1307100025013800202      13071000     1307          5799MAHampden                                                     
25013800300      4196100025013800300      41961000     4196          2591MAHampden                                                     
25013800400      6241100025013800400      62411000     6241          2156MAHampden                                                     
25013800500P     3371100025013800500      33711000     3371          1592MAHampden                                                     
25013800500P     3371000025013800600P     27400000        0            39MAHampden                                                     
25013800600      2740100025013800600P     27401000     2740           756MAHampden                                                     
25013800700      3934100025013800700      39341000     3934          1036MAHampden                                                     
25013800800      2151100025013800800      21511000     2151           963MAHampden                                                     
25013800900      4011100025013800900      40111000     4011          1248MAHampden                                                     
25013801000         1100025013801101P     20470000        1           398MAHampden                                                     
25013801101      2046100025013801101P     20471000     2046           601MAHampden                                                     
25013801102      1503100025013801102      15031000     1503           403MAHampden                                                     
25013801200      2488100025013801200      24881000     2488           872MAHampden                                                     
25013801300      4780100025013801300P     48810979     4780          1646MAHampden                                                     
25013801401P     4346002325013801300P     48810021      101            27MAHampden                                                     
25013800201P     6317000025013801401P     42450000        0           793MAHampden                                                     
25013801401P     4346097725013801401P     42451000     4245          2527MAHampden                                                     
25013801402      2010100025013801402      20101000     2010          1026MAHampden                                                     
25013801501      4866100025013801501P     48850996     4866          3104MAHampden                                                     
25013801502P     3411000625013801501P     48850004       19             3MAHampden                                                     
25013801502P     3411099425013801502      33921000     3392          2107MAHampden                                                     
25013801503      3670100025013801503      36701000     3670          3324MAHampden                                                     
25013801601      5329100025013801601      53291000     5329          4296MAHampden                                                     
25013801602      4675100025013801602      46751000     4675          2940MAHampden                                                     
25013801603      4173100025013801603      41731000     4173          4102MAHampden                                                     
25013801604      4107100025013801604      41071000     4107          5288MAHampden                                                     
25013801605      4653100025013801605      46531000     4653          4278MAHampden                                                     
25013801700P     7189099925013801700P     71791000     7179          1661MAHampden                                                     
25013801800P     4547000025013801700P     71790000        0             6MAHampden                                                     
25013801700P     7189000125013801800P     45570002       10            66MAHampden                                                     
25013801800P     4547100025013801800P     45570998     4547          1235MAHampden                                                     
25013802300P     6407000025013801800P     45570000        0             0MAHampden                                                     
25013801900      7688100025013801900P     76881000     7688          1697MAHampden                                                     
25013802000P     3223000025013801900P     76880000        0             3MAHampden                                                     
25013802000P     3223100025013802000      32231000     3223           887MAHampden                                                     
25013802100      6305100025013802100      63051000     6305          4725MAHampden                                                     
25013802200      3242100025013802200      32421000     3242           588MAHampden                                                     
25013802300P     6407100025013802300      64071000     6407          1180MAHampden                                                     
25013802400      3669100025013802400      36691000     3669          2769MAHampden                                                     
25013802500      6949100025013802500      69491000     6949          3622MAHampden                                                     
25013802601      6400100025013802601P     66970956     6400          1581MAHampden                                                     
25013802602P     2379012525013802601P     66970044      297           260MAHampden                                                     
25013802602P     2379087525013802602      20821000     2082          1518MAHampden                                                     
25013810100      6146100025013810100      61461000     6146         50725MAHampden                                                     
25013810200      2997100025013810200      29971000     2997         18015MAHampden                                                     
25013810300      3354100025013810300      33541000     3354         12926MAHampden                                                     
25013810402P     7968051525013810403      41051000     4105          2355MAHampden                                                     
25013810402P     7968048525013810404      38631000     3863          6422MAHampden                                                     
25013810411P     7319001325013810412P     60140015       92           327MAHampden                                                     
25013810412      5922100025013810412P     60140985     5922          8105MAHampden                                                     
25013810411P     7319098725013810414      72271000     7227         53108MAHampden                                                     
25013810601P     4143099225013810601P     41101000     4110          5855MAHampden                                                     
25013810602P     2769000025013810601P     41100000        0             0MAHampden                                                     
25013810500P        0000125013810602P     27720000        0             6MAHampden                                                     
25013810601P     4143000125013810602P     27720001        3             8MAHampden                                                     
25013810602P     2769100025013810602P     27720999     2769          9966MAHampden                                                     
25013810700      5975100025013810700      59751000     5975          3346MAHampden                                                     
25013810800      3844100025013810800      38441000     3844          2497MAHampden                                                     
25013810901      1994100025013810901      19941000     1994           916MAHampden                                                     
25013810902      4279100025013810902      42791000     4279          2603MAHampden                                                     
25013811000P     4936096325013811000      47511000     4751          4786MAHampden                                                     
25013811000P     4936003425013811101P     49520034      169           492MAHampden                                                     
25013811101      3964100025013811101P     49520800     3964          1110MAHampden                                                     
25013811200P     5635014525013811101P     49520165      819           565MAHampden                                                     
25013811000P     4936000325013811102P     62000003       16           353MAHampden                                                     
25013811102      6184100025013811102P     62000997     6184          3417MAHampden                                                     
25013811200P     5635085325013811200      48061000     4806          3802MAHampden                                                     
25013811200P     5635000225013811301P     53220002       10            31MAHampden                                                     
25013811301      5312100025013811301P     53220998     5312          4468MAHampden                                                     
25013810500P        0099925013811302P     56480000        0          9392MAHampden                                                     
25013810601P     4143000725013811302P     56480005       30            71MAHampden                                                     
25013811302      5618100025013811302P     56480995     5618          5547MAHampden                                                     
25013811400      2534100025013811400      25341000     2534           977MAHampden                                                     
25013811500P     2169100025013811500P     21691000     2169           848MAHampden                                                     
25013812102P     8114000025013811500P     21690000        0             2MAHampden                                                     
25013811500P     2169000025013811600P     35600000        0            12MAHampden                                                     
25013811600      3560100025013811600P     35601000     3560           852MAHampden                                                     
25013811700      2346100025013811700      23461000     2346           894MAHampden                                                     
25013811800      4030100025013811800      40301000     4030           796MAHampden                                                     
25013811900      3703100025013811900      37031000     3703         17625MAHampden                                                     
25013812000      8139100025013812000P     81391000     8139          6119MAHampden                                                     
25013812101P     5243000025013812000P     81390000        0           338MAHampden                                                     
25013812101P     5243100025013812101      52431000     5243         20739MAHampden                                                     
25013811500P     2169000025013812102P     81140000        0            28MAHampden                                                     
25013812102P     8114100025013812102P     81141000     8114          5906MAHampden                                                     
25013812200      8268100025013812200      82681000     8268         11616MAHampden                                                     
25013812300      5855100025013812300P     58590999     5855          4620MAHampden                                                     
25013812402P     7693000125013812300P     58590001        4             1MAHampden                                                     
25013812401      6083100025013812401      60831000     6083         20078MAHampden                                                     
25013812402P     7693099925013812402      76891000     7689          7066MAHampden                                                     
25013812500P     7372100025013812500      73721000     7372         29366MAHampden                                                     
25013812600P     6737099525013812600      67021000     6702         15661MAHampden                                                     
25013812701      4028100025013812701      40281000     4028          1566MAHampden                                                     
25013812600P     6737000525013812702P     53410007       35           289MAHampden                                                     
25013812702      5306100025013812702P     53410993     5306          2007MAHampden                                                     
25013812500P     7372000025013812800P     65010000        0             3MAHampden                                                     
25013812800      6501100025013812800P     65011000     6501         40493MAHampden                                                     
25013812912      3209100025013812901      32091000     3209          3718MAHampden                                                     
25013812911P     6919071725013812902      49581000     4958         26985MAHampden                                                     
25013812911P     6919028325013812903      19611000     1961           551MAHampden                                                     
25013813000      6780100025013813000      67801000     6780        504937MAHampden                                                     
25013813100      8835100025013813100P     88351000     8835         80174MAHampden                                                     
25013813201P    10153000025013813100P     88350000        0             0MAHampden                                                     
25013813203      8439100025013813203      84391000     8439         11374MAHampden                                                     
25013813201P    10153031925013813204      32381000     3238         11926MAHampden                                                     
25013813201P    10153068125013813205P     75110921     6915         25340MAHampden                                                     
25013813202P     9552006225013813205P     75110079      596           665MAHampden                                                     
25013813202P     9552041525013813206      39611000     3961          5842MAHampden                                                     
25013813202P     9552052325013813207      49951000     4995          5049MAHampden                                                     
25013813301      7239100025013813301      72391000     7239         11957MAHampden                                                     
25013813302      8394100025013813302      83941000     8394         11413MAHampden                                                     
25013813401      5045100025013813401      50451000     5045          5741MAHampden                                                     
25013813402P     9055039425013813403      35661000     3566          6450MAHampden                                                     
25013813402P     9055060625013813404      54891000     5489         21401MAHampden                                                     
25013813500      5171100025013813500      51711000     5171         50865MAHampden                                                     
25013810402P     7968000025013813601P     75120000        0             0MAHampden                                                     
25013810411P     7319000025013813601P     75120000        0             0MAHampden                                                     
25013813601      7512100025013813601P     75121000     7512         26508MAHampden                                                     
25013813602      5961100025013813602      59611000     5961         31044MAHampden                                                     
25013813700      8359100025013813700      83591000     8359        114693MAHampden                                                     
25013813800      7483100025013813800      74831000     7483        162770MAHampden                                                     
25015820100P     9707061925015820101      60051000     6005         81955MAHampshire                                                   
25015820100P     9707038125015820102      37021000     3702          7164MAHampshire                                                   
25015820202      1403100025015820202      14031000     1403         64920MAHampshire                                                   
25015820201P    12968059325015820203      76891000     7689         51568MAHampshire                                                   
25015820201P    12968040725015820204      52791000     5279         84996MAHampshire                                                   
25015820300      6714100025015820300P     68520980     6714         17988MAHampshire                                                   
25015820400P     9860001425015820300P     68520020      138           307MAHampshire                                                   
25015820400P     9860098625015820400P     99310979     9722          2097MAHampshire                                                   
25015820500P     6019003525015820400P     99310021      209            71MAHampshire                                                   
25015820500P     6019096525015820500P     58111000     5809          6735MAHampshire                                                   
25015821400P     4794000025015820500P     58110000        2             1MAHampshire                                                   
25015820600      1502100025015820600      15021000     1502          1496MAHampshire                                                   
25015820700      4199100025015820700      41991000     4199         12736MAHampshire                                                   
25015820801      6578100025015820801P     65781000     6578         29539MAHampshire                                                   
25015821400P     4794000025015820801P     65780000        0            85MAHampshire                                                   
25015820802         1100025015820802         11000        1           732MAHampshire                                                   
25015820900      6132100025015820900      61321000     6132         72162MAHampshire                                                   
25015821000P     4259099925015821000P     42880992     4253          8352MAHampshire                                                   
25015821200P     2072001725015821000P     42880008       35           133MAHampshire                                                   
25015821000P     4259000125015821100P     68400001        6             3MAHampshire                                                   
25015821100      6834100025015821100P     68400999     6834          6958MAHampshire                                                   
25015821200P     2072094125015821200      19491000     1949          1182MAHampshire                                                   
25015821200P     2072004225015821300P     41190021       88           491MAHampshire                                                   
25015821300      4031100025015821300P     41190979     4031         28746MAHampshire                                                   
25015820500P     6019000025015821400P     47930000        1             0MAHampshire                                                   
25015821400P     4794100025015821400P     47931000     4792         60360MAHampshire                                                   
25015821500      3249100025015821500      32491000     3249         41484MAHampshire                                                   
25015821601      3482100025015821601      34821000     3482         13015MAHampshire                                                   
25015821602      3936100025015821602      39361000     3936          4044MAHampshire                                                   
25015821700P     3602099925015821700P     39080921     3600         30112MAHampshire                                                   
25015821800       308100025015821700P     39080079      308          1171MAHampshire                                                   
25015821901P     3286097025015821901P     34290930     3188          1437MAHampshire                                                   
25015822000P     2182011025015821901P     34290070      241           108MAHampshire                                                   
25015821900         0100025015821902P     58850000        0             4MAHampshire                                                   
25015821902P     5971097725015821902P     58850991     5831          2741MAHampshire                                                   
25015822000P     2182001325015821902P     58850005       29           112MAHampshire                                                   
25015822100P      142014125015821902P     58850003       20          1340MAHampshire                                                   
25015822200P     6069000125015821902P     58850001        5            16MAHampshire                                                   
25015821901P     3286003025015822000P     21500046       98             4MAHampshire                                                   
25015821902P     5971002325015822000P     21500065      140            18MAHampshire                                                   
25015822000P     2182087625015822000P     21500889     1912           444MAHampshire                                                   
25015821700P     3602000125015822200P     61880000        2             2MAHampshire                                                   
25015822100P      142085925015822200P     61880020      122           714MAHampshire                                                   
25015822200P     6069099925015822200P     61880980     6064         33963MAHampshire                                                   
25015822300      5335100025015822300      53351000     5335          9559MAHampshire                                                   
25015822401P     5565100025015822401      55651000     5565         17579MAHampshire                                                   
25015822402      5094100025015822402      50941000     5094          7611MAHampshire                                                   
25015822401P     5565000025015822500P     53870000        0             0MAHampshire                                                   
25015822500      5387100025015822500P     53871000     5387         72904MAHampshire                                                   
25015822600      8191100025015822600      81911000     8191        331190MAHampshire                                                   
25015822700      3379100025015822700      33791000     3379        259831MAHampshire                                                   
25017300100      2845100025017300100      28451000     2845         61629MAMiddlesex                                                   
25017301100P     9198042125017301101      38691000     3869         44606MAMiddlesex                                                   
25017301100P     9198057925017301102      53291000     5329         40532MAMiddlesex                                                   
25017302100P     6365098925017302100P     63030999     6295         38111MAMiddlesex                                                   
25017302200P        8100025017302100P     63030001        8            34MAMiddlesex                                                   
25017302100P     6365001125017302200P       701000       70            72MAMiddlesex                                                   
