25025000000P        0050025025000000         01000        0             0MASuffolk                                                     
25025000100      3968100025025000100      39681000     3968          2148MASuffolk                                                     
25025000201      3887100025025000201      38871000     3887           595MASuffolk                                                     
25025000202      3903100025025000202P     39250994     3903           590MASuffolk                                                     
25025000601P     3435000625025000202P     39250006       22             1MASuffolk                                                     
25025000300P     5929049325025000301      29231000     2923           638MASuffolk                                                     
25025000300P     5929050725025000302      30061000     3006           612MASuffolk                                                     
25025000401      5796100025025000401      57961000     5796           442MASuffolk                                                     
25025000402      3564100025025000402      35641000     3564           808MASuffolk                                                     
25025000501      7366100025025000501      73661000     7366           461MASuffolk                                                     
25025000502      3178100025025000502      31781000     3178           921MASuffolk                                                     
25025000601P     3435099425025000601      34131000     3413           505MASuffolk                                                     
25025000602      4860100025025000602      48601000     4860           603MASuffolk                                                     
25025000701      4687100025025000701      46871000     4687           221MASuffolk                                                     
25025000702      7551100025025000702      75511000     7551           421MASuffolk                                                     
25025000801P     3713095225025000801P     35400998     3534          1332MASuffolk                                                     
25025000802P     7811000125025000801P     35400002        6             5MASuffolk                                                     
25025000801P     3713004825025000802P     79840022      179            88MASuffolk                                                     
25025000802P     7811099925025000802P     79840978     7805           876MASuffolk                                                     
25025010101      5004100025025010101      50041000     5004           341MASuffolk                                                     
25025000801P     3713000025025010102P     39380000        0            10MASuffolk                                                     
25025010102      3938100025025010102P     39381000     3938           372MASuffolk                                                     
25025010200P     8099067525025010201      54641000     5464           530MASuffolk                                                     
25025010200P     8099032525025010202      26351000     2635           265MASuffolk                                                     
25025010200P     8099000025025010300P     55480000        0             0MASuffolk                                                     
25025010300      5548100025025010300P     55481000     5548           791MASuffolk                                                     
25025010401      9346100025025010401      93461000     9346           230MASuffolk                                                     
25025010402      3769100025025010402      37691000     3769           456MASuffolk                                                     
25025010500      3061100025025010500      30611000     3061           211MASuffolk                                                     
25025010600      2406100025025010600      24061000     2406           348MASuffolk                                                     
25025010700P     4934099525025010700      49081000     4908           501MASuffolk                                                     
25025010700P     4934000525025010800P     63060004       26             0MASuffolk                                                     
25025010800      6280100025025010800P     63060996     6280           400MASuffolk                                                     
25025020100      4157100025025020100      41571000     4157           328MASuffolk                                                     
25025020200      3635100025025020200P     36351000     3635           106MASuffolk                                                     
25025020300P     5881000025025020200P     36350000        0             0MASuffolk                                                     
25025020300P     5881100025025020300      58811000     5881           841MASuffolk                                                     
25025030100      1963100025025030100      19631000     1963            76MASuffolk                                                     
25025030200      1534100025025030200P     15341000     1534            75MASuffolk                                                     
25025030300P     4087000025025030200P     15340000        0             0MASuffolk                                                     
25025030300P     4087099725025030300      40741000     4074           736MASuffolk                                                     
25025030300P     4087000325025030400P     22220006       13             0MASuffolk                                                     
25025030400      2209100025025030400P     22220994     2209           108MASuffolk                                                     
25025030500      2321100025025030500      23211000     2321           201MASuffolk                                                     
25025040100P     1870097725025040100P     18430991     1827           255MASuffolk                                                     
25025040400P     2086000825025040100P     18430009       16             3MASuffolk                                                     
25025040100P     1870000025025040200P     16520000        0             2MASuffolk                                                     
25025040200      1652100025025040200P     16521000     1652           135MASuffolk                                                     
25025040800P     3611000025025040200P     16520000        0             3MASuffolk                                                     
25025040300      2654100025025040300P     38450690     2654           178MASuffolk                                                     
25025040500      1191100025025040300P     38450310     1191            92MASuffolk                                                     
25025040400P     2086099225025040400      20701000     2070           426MASuffolk                                                     
25025040600       324100025025040600P     21310152      324           629MASuffolk                                                     
25025040700      1807100025025040600P     21310848     1807           788MASuffolk                                                     
25025040100P     1870002325025040800P     36540012       43            13MASuffolk                                                     
25025040800P     3611100025025040800P     36540988     3611           921MASuffolk                                                     
25025050100      4587100025025050100      45871000     4587           286MASuffolk                                                     
25025050200P     4987098225025050200      48971000     4897           250MASuffolk                                                     
25025050300      2307100025025050300      23071000     2307           343MASuffolk                                                     
25025050400      2525100025025050400      25251000     2525           131MASuffolk                                                     
25025050500      1897100025025050500      18971000     1897           119MASuffolk                                                     
25025050600P     2105098925025050600P     20811000     2081           170MASuffolk                                                     
25025050800P     2494000025025050600P     20810000        0             4MASuffolk                                                     
25025050200P     4987001825025050700P     40420022       90             4MASuffolk                                                     
25025050600P     2105001125025050700P     40420006       24             0MASuffolk                                                     
25025050700      1434100025025050700P     40420355     1434            89MASuffolk                                                     
25025050800P     2494100025025050700P     40420617     2494           174MASuffolk                                                     
25025050900      3697100025025050900      36971000     3697           557MASuffolk                                                     
25025051000P     3912100025025051000P     39140999     3912          1076MASuffolk                                                     
25025051100P     5799000025025051000P     39140001        2             2MASuffolk                                                     
25025051100P     5799100025025051100      57971000     5797          2441MASuffolk                                                     
25025051000P     3912000025025051200P     26690000        0             0MASuffolk                                                     
25025051200      2669100025025051200P     26691000     2669          6025MASuffolk                                                     
25025060100      3009100025025060100      30091000     3009          1239MASuffolk                                                     
25025060200      2054100025025060200      20541000     2054           181MASuffolk                                                     
25025060300      3077100025025060300      30771000     3077           290MASuffolk                                                     
25025060400      4946100025025060400P     49461000     4946           413MASuffolk                                                     
25025061100P     2046000025025060400P     49460000        0            44MASuffolk                                                     
25025060500P     3326100025025060500      33261000     3326           980MASuffolk                                                     
25025060500P     3326000025025060600P     14010000        0             5MASuffolk                                                     
25025060600      1401100025025060600P     14011000     1401          1889MASuffolk                                                     
25025060700      1384100025025060700      13841000     1384           125MASuffolk                                                     
25025060800      1470100025025060800P     37260395     1470           148MASuffolk                                                     
25025060900      2256100025025060800P     37260605     2256           190MASuffolk                                                     
25025061000      3064100025025061000      30641000     3064           177MASuffolk                                                     
25025061100P     2046100025025061100      20461000     2046           569MASuffolk                                                     
25025061200       857100025025061200P     19050450      857            95MASuffolk                                                     
25025061300       592100025025061200P     19050311      592           469MASuffolk                                                     
25025061400       456100025025061200P     19050239      456          1265MASuffolk                                                     
25025071000P     2214000025025061200P     19050000        0             5MASuffolk                                                     
25025070100P     3181100025025070100P     31811000     3181          1232MASuffolk                                                     
25025070400P     1832000025025070100P     31810000        0            13MASuffolk                                                     
25025070200P     4218099225025070200      41831000     4183           275MASuffolk                                                     
25025070200P     4218000825025070300P     35520010       35             8MASuffolk                                                     
25025070300      3517100025025070300P     35520990     3517           427MASuffolk                                                     
25025070100P     3181000025025070400P     18320000        0             3MASuffolk                                                     
25025070400P     1832100025025070400P     18321000     1832           236MASuffolk                                                     
25025070500      5435100025025070500      54351000     5435           302MASuffolk                                                     
25025070600      2188100025025070600      21881000     2188           133MASuffolk                                                     
25025070700      2214100025025070700      22141000     2214           154MASuffolk                                                     
25025070800      3600100025025070800      36001000     3600           195MASuffolk                                                     
25025070900      2853100025025070900      28531000     2853           169MASuffolk                                                     
25025071000P     2214100025025071100P     31200710     2214           231MASuffolk                                                     
25025071100       906100025025071100P     31200290      906           138MASuffolk                                                     
25025071000P     2214000025025071200P     13440000        0           137MASuffolk                                                     
25025071200      1344100025025071200P     13441000     1344           296MASuffolk                                                     
25025080100      1841100025025080100P     33810545     1841           797MASuffolk                                                     
25025080200      1540100025025080100P     33810455     1540           215MASuffolk                                                     
25025080300      1682100025025080300      16821000     1682           272MASuffolk                                                     
25025080400       723100025025080400       7231000      723           318MASuffolk                                                     
25025080500      3877100025025080500      38771000     3877           362MASuffolk                                                     
25025080600      1577100025025080600P     23000686     1577           241MASuffolk                                                     
25025080700       723100025025080600P     23000314      723           295MASuffolk                                                     
25025080800       963100025025080800       9631000      963           162MASuffolk                                                     
25025080900      3564100025025080900      35641000     3564           256MASuffolk                                                     
25025081000      4943100025025081000      49431000     4943           605MASuffolk                                                     
25025081100      3640100025025081100P     37540970     3640           565MASuffolk                                                     
25025081200P     3101003725025081100P     37540030      114            14MASuffolk                                                     
25025081200P     3101095125025081200P     29750991     2948           285MASuffolk                                                     
25025081400P     1826001525025081200P     29750009       27             0MASuffolk                                                     
25025081300      4142100025025081300      41421000     4142           574MASuffolk                                                     
25025081400P     1826098525025081400P     25310711     1799           480MASuffolk                                                     
25025081600       732100025025081400P     25310289      732           175MASuffolk                                                     
25025081500      1641100025025081500      16411000     1641           351MASuffolk                                                     
25025081700      3722100025025081700      37221000     3722           623MASuffolk                                                     
25025081800      2863100025025081800      28631000     2863           370MASuffolk                                                     
25025081900      3206100025025081900      32061000     3206           431MASuffolk                                                     
25025082000      2806100025025082000      28061000     2806           385MASuffolk                                                     
25025082100      4251100025025082100      42511000     4251           362MASuffolk                                                     
25025090100      4588100025025090100      45881000     4588           457MASuffolk                                                     
25025090200      1996100025025090200      19961000     1996           275MASuffolk                                                     
25025090300      3130100025025090300      31301000     3130           381MASuffolk                                                     
25025090400      1717100025025090400P     32550527     1717           245MASuffolk                                                     
25025090500      1538100025025090400P     32550473     1538           185MASuffolk                                                     
25025090600      2123100025025090600      21231000     2123           302MASuffolk                                                     
25025090700      3275100025025090700P     45180725     3275           849MASuffolk                                                     
25025090800      1243100025025090700P     45180275     1243           232MASuffolk                                                     
25025091100P     5086000025025090700P     45180000        0             1MASuffolk                                                     
25025090900      3190100025025090900      31901000     3190          1011MASuffolk                                                     
25025091000      2772100025025091000      27721000     2772          1195MASuffolk                                                     
25025091100P     5086100025025091100      50861000     5086           427MASuffolk                                                     
25025091200      3458100025025091200      34581000     3458           316MASuffolk                                                     
25025091300      2409100025025091300      24091000     2409           260MASuffolk                                                     
25025091400      2440100025025091400      24401000     2440           326MASuffolk                                                     
25025091500      4795100025025091500      47951000     4795           401MASuffolk                                                     
25025091600      3448100025025091600      34481000     3448           315MASuffolk                                                     
25025091700      3347100025025091700      33471000     3347           292MASuffolk                                                     
25025091800      3547100025025091800      35471000     3547           434MASuffolk                                                     
25025091900      3684100025025091900      36841000     3684           473MASuffolk                                                     
25025092000      5347100025025092000      53471000     5347           489MASuffolk                                                     
25025092100      6859100025025092100      68591000     6859          1272MASuffolk                                                     
25025092200      3671100025025092200      36711000     3671           577MASuffolk                                                     
25025092300      3079100025025092300      30791000     3079           344MASuffolk                                                     
25025092400      6470100025025092400      64701000     6470           601MASuffolk                                                     
25025100100      5430100025025100100      54301000     5430           847MASuffolk                                                     
25025100200      2663100025025100200      26631000     2663           363MASuffolk                                                     
25025100300      3661100025025100300      36611000     3661           487MASuffolk                                                     
25025100400      5228100025025100400      52281000     5228           616MASuffolk                                                     
25025100500      6556100025025100500      65561000     6556           868MASuffolk                                                     
25025100601      5666100025025100601      56661000     5666           559MASuffolk                                                     
25025100602      1941100025025100602      19411000     1941           903MASuffolk                                                     
25025100700      4384100025025100700      43841000     4384          1215MASuffolk                                                     
25025100800      5512100025025100800      55121000     5512          1773MASuffolk                                                     
25025100900P     4334098125025100900      42501000     4250           968MASuffolk                                                     
25025101001      6172100025025101001      61721000     6172          1541MASuffolk                                                     
25025100900P     4334001925025101002P     54050016       84            23MASuffolk                                                     
25025101002      5321100025025101002P     54050984     5321          1155MASuffolk                                                     
25025101101      3205100025025101101      32051000     3205           385MASuffolk                                                     
25025101102      4942100025025101102      49421000     4942           554MASuffolk                                                     
25025110101       238100025025110100P     68200035      238          3130MASuffolk                                                     
25025110102P     6206100025025110100P     68200910     6206          1752MASuffolk                                                     
25025120200P     3496002125025110100P     68200011       73             9MASuffolk                                                     
25025120300P     4885006225025110100P     68200044      303            58MASuffolk                                                     
25025110200      2115100025025110200      21151000     2115          1068MASuffolk                                                     
25025110300      2360100025025110300      23601000     2360           789MASuffolk                                                     
25025110401P     3796098925025110401      37561000     3756           513MASuffolk                                                     
25025110402      4409100025025110402      44091000     4409           927MASuffolk                                                     
25025110501      3285100025025110501      32851000     3285           624MASuffolk                                                     
25025110401P     3796001125025110502P     39950010       40             6MASuffolk                                                     
25025110502      3955100025025110502P     39950990     3955           685MASuffolk                                                     
25025110601      2645100025025110601      26451000     2645          1411MASuffolk                                                     
25025110602      5662100025025110602      56621000     5662          1480MASuffolk                                                     
25025110102P     6206000025025120101P     24210000        0             0MASuffolk                                                     
25025120100P     5983040525025120101P     24211000     2421          1314MASuffolk                                                     
25025120100P     5983059525025120102      35621000     3562          2341MASuffolk                                                     
25025120200P     3496097925025120200      34231000     3423           700MASuffolk                                                     
25025120300P     4885093825025120300      45821000     4582           579MASuffolk                                                     
25025120400      5585100025025120400      55851000     5585          1019MASuffolk                                                     
25025120500      2480100025025120500      24801000     2480           230MASuffolk                                                     
25025120600      2368100025025120600      23681000     2368           259MASuffolk                                                     
25025081200P     3101001325025120700P     20860019       39             1MASuffolk                                                     
25025120700      2047100025025120700P     20860981     2047           362MASuffolk                                                     
25025130100      5041100025025130100      50411000     5041          4417MASuffolk                                                     
25025130200      4689100025025130200      46891000     4689          1363MASuffolk                                                     
25025130300      4340100025025130300      43401000     4340          1566MASuffolk                                                     
25025130401      7531100025025130401      75311000     7531          3197MASuffolk                                                     
25025130402      4507100025025130402      45071000     4507          2120MASuffolk                                                     
25025140102      4122100025025140102      41221000     4122          2368MASuffolk                                                     
25025140101P     8595041825025140103      35961000     3596           959MASuffolk                                                     
25025140101P     8595058225025140104      49991000     4999          2923MASuffolk                                                     
25025140200P     7511026925025140201      20181000     2018          1395MASuffolk                                                     
25025140200P     7511073125025140202      54931000     5493          1573MASuffolk                                                     
25025140300      6214100025025140300      62141000     6214          1575MASuffolk                                                     
25025140400      7978100025025140400      79781000     7978          1878MASuffolk                                                     
25025000000P        0050025025150100P      6400000        0             0MASuffolk                                                     
25025150100       640100025025150100P      6401000      640          3431MASuffolk                                                     
25025160100      7541100025025160100      75411000     7541           699MASuffolk                                                     
25025160200P     4597085325025160200      39201000     3920           223MASuffolk                                                     
25025160200P     4597014725025160300P     22440302      677           191MASuffolk                                                     
25025160300P     1244100025025160300P     22440554     1244           337MASuffolk                                                     
25025160400P     3094010425025160300P     22440144      323            34MASuffolk                                                     
25025160300P     1244000025025160400P     27710000        0            21MASuffolk                                                     
25025160400P     3094089625025160400P     27711000     2771          1245MASuffolk                                                     
25025160500     10256100025025160500     102561000    10256          1512MASuffolk                                                     
25025160600      8285100025025160600P     83480992     8285          1379MASuffolk                                                     
25025160700        63100025025160600P     83480008       63            23MASuffolk                                                     
25025170100      6789100025025170100      67891000     6789          1458MASuffolk                                                     
25025170200      4433100025025170200      44331000     4433           975MASuffolk                                                     
25025170300      7306100025025170300      73061000     7306          4220MASuffolk                                                     
25025170400P     4879100025025170400      48791000     4879          2399MASuffolk                                                     
25025170500      6074100025025170500      60741000     6074          2250MASuffolk                                                     
25025170400P     4879000025025170600P     47700000        0             0MASuffolk                                                     
25025170600P     4772100025025170600P     47701000     4770          1303MASuffolk                                                     
25025170600P     4772000025025170700P     83150000        2             0MASuffolk                                                     
25025170700      8306100025025170700P     83150999     8306          1847MASuffolk                                                     
25025170800P     4724000125025170700P     83150001        7             4MASuffolk                                                     
25025170800P     4724099925025170800      47171000     4717           862MASuffolk                                                     
25025180100      4896100025025180100      48961000     4896          1219MASuffolk                                                     
25025180200      4120100025025180200      41201000     4120          1035MASuffolk                                                     
25025180300      3191100025025180300      31911000     3191          1524MASuffolk                                                     
25025180400      1822100025025180400      18221000     1822           605MASuffolk                                                     
25025180500      4274100025025180500      42741000     4274           765MASuffolk                                                     